:0400000080313228F1
:100008007E14803120007F08F300901E182890127B
:10001800031022000E1E0314031C152822000E16BE
:100028002D2822000E122D28111F2D281113210012
:100038001C08F000F1017008F100F0017008F400EC
:100048007108F500740829009B0075089C00F030C1
:100058009D0573082000FF007E10090080313428B8
:100068008031A6208031F4008031A720F5007E1071
:10007800200080319028200097131716F03097053C
:1000880018081F396038980018161808F03905380C
:100098009800971721001D101D08033910389D007E
:1000A8009E131E088F3960389E001E11FC309E0575
:1000B8001F08E03903389F001D1429009E131E10E5
:1000C800FC309F0533309B0033309C00F0309D0599
:1000D8009E173D001208E0391D38920008002000E4
:1000E8008C018E0122008C018E01103023008C00BF
:1000F8008E01103021008C008E0124008C018E01AD
:1001080025008C018E0126008C018E013F302700CE
:100118008C003F308E0008008031732080318031A0
:100128003F20803180319D2080318031A320803173
:100138009C288B130B1321009016111708008B179E
:080148000B17080010342734E6
:020000040001F9
:08000E008FF7F3FFFFFFFFFF76
:00000001FF
