:020000040000fa
:080000000002040000000000f2
:020000040000fa
:10000800d2020000d2020000d2020000d202000098
:10001800d2020000d2020000d2020000d202000088
:10002800d2020000d2020000d2020000c40900007f
:10003800d2020000d2020000d2020000dc09000057
:10004800d2020000d2020000d2020000060a00001c
:10005800d2020000d2020000d2020000d202000048
:10006800d2020000d2020000d2020000d202000038
:10007800d2020000d2020000d2020000d202000028
:10008800d2020000d2020000d2020000d202000018
:020000040000fa
:10040000cf9121000eff27000e01880000000000a0
:10041000000020000000e000020032000001200087
:10042000200288000c000700802d20000100200021
:100430000f000700000020000000e0000200320072
:100440000000020000000000ee08020000000000b2
:100450000040da000000fe00200020000000e00064
:1004600002003200002020009001880000000600f9
:10047000a1028800800078000000eb001a0037001d
:10048000e280400054a0b4009101ba00e280400034
:1004900054a0b4009102ba00e280400054a0b4001d
:1004a0000002eb00472bde00f507b200a601880032
:1004b000602ce10008003a000049eb000201e8006e
:1004c000020039003420ec0002f0a0008301e900b2
:1004d000f9ff3e00040037006128e100010032000e
:1004e0000082eb00040007001101ba000200e000e6
:1004f000e3ff3a000000060004d0a300e20f490029
:100500001c003900810278003549ba000201e80078
:10051000020039003420ec0002f0a0008301e90061
:100520000f0032002549ba000201e800020039003c
:100530003420ec0002f0a0008301e9000800320042
:100540000400e0000600320015c9ba000201e8000c
:10055000020039003420ec0002f0a0008301e90021
:100560008180e80054a0b4000300e000e2ff3a00fc
:10057000000006009102ba00055978008301e900e5
:10058000f7ff3200c82ade00055978008301e90030
:10059000f3ff32000400e000f1ff320011d9ba008d
:0c05a000eeff37000040da000000fe0013
:020000040000fa
:0405ac00bb0200008e
:020000040000fa
:1005b0001c100000000900008200000000801600ee
:1005c000822c840041865600886a8a007e8c9100c5
:1005d0008ea39000b392c30094d19600dd98e800fa
:1005e0009af19c00f79efc00a0fea200fea4fc0075
:1005f000a6f6a800eeaae300acd5ae00c3b0ae00ec
:10060000b296b4007ab65a00b837ba000fbce3000d
:10061000bdb3bf007fc14600c308c500c6c67f008a
:10062000c833ca00e1cb8b00cd2fcf00ced06700fe
:10063000d2fbd30089d51100d793d8000fda8500fb
:10064000dbf4dc005edec000df1de10073e2c2000f
:10065000e30ae5004be68600e7b9e800e6e90b00af
:10066000eb29ec0040ed4f00ee57ef0057f0500043
:10067000f142f2002bf30d00f4e7f400baf5840028
:10068000f647f70001f8b400f85ff90001fa9c00a2
:10069000fa2efb00b8fb3b00fcb5fc0026fd9000e9
:1006a000fdf1fd004afe9b00fee4fe0024ff5c001d
:1006b000ff8cff00b4ffd300ffeaff00f9ffff004b
:1006c000ffffff00f5ffe300ffc9ff00a7ff7d006c
:1006d000ff4bff0011ffce00fe84fe0032fed8006b
:1006e000fd77fd000dfd9c00fc23fc00a3fb1b001f
:1006f000fb8cfa00f5f95600f9b1f80004f8500047
:10070000f795f600d3f50a00f53af40063f3860096
:10071000f2a1f100b7f0c600efceee00d0edcd00b3
:10072000ecc3eb00b2ea9d00e981e8005fe7380026
:10073000e60ce500dae3a200e266e10025e0de0077
:10074000de93dd0043dcee00da95d90037d8d60021
:10075000d670d50006d49800d226d100b1cf38008b
:10076000cebbcc003ccbb900c933c800abc61f0020
:10077000c591c30000c26d00c0d8be0040bda70037
:10078000bb0cba006fb8d000b630b5008eb3ec0029
:10079000b148b000a3aefe00ac58ab00b1a90a004e
:1007a000a862a600bba41300a36ca100c59f1e00f5
:1007b0009e789c00d29a2d0099899700e695450075
:1007c00094a49200059167008fcb8d00318c990025
:1007d0008a0389006f87dd00854e8400c18237005f
:1007e00081af7f002b7ea9007c2b7b00af79370087
:1007f00078c276005175e400737a72001471b20009
:100800006f546e00fa6ca4006b536a000669be0058
:10081000677a66003b65000064cb62009a616f00f6
:1008200060485f00275e0b005df45b00e35ad70071
:1008300059d05800d057d40056df5500ef54060069
:100840005422530044526c00519a5000ce4f08007d
:100850004f484e008f4ddc004c2f4c00884be80079
:100860004a4e4a00bb492e0049a748002748ae001f
:10087000473b4700ce46680046084600af455d004e
:1008800045114500cc448d00445544002344f700f5
:1008900043d34300b4439d00438b430080437c001b
:1008a000437e43008643950043a94300c543e600c9
:1008b000430e44003b446f0044a94400e9442f0028
:1008c000457b4500cc45240046814600e4464d006a
:1008d00047bb47002f48a80048274900ab493400d0
:1008e0004ac24a00564bee004b8c4c002e4dd500b0
:1008f0004d814e00324fe7004fa050005e51200066
:1009000052e75200b153800054525500295603005b
:1009100057e15700c258a700598f5a007a5b690007
:100920005c5a5d004f5e46005f4060003d613c00e8
:10093000623d630041644800655066005a67660086
:1009400068746900836a94006ba76c00ba6dcf006d
:100950006ee66f00fd701400722d73004674600027
:10096000757b76009577b00078cb7900e67a000049
:100970007c1b7d00357e4f007f6880008081980061
:1009800082ae8300c484d90085ec8600fe870f0008
:10099000891e8a002b8b37008c418d00488e4e00bb
:1009a0008f52900053915200924f9300499440000f
:1009b000953596002797160098029900eb99d1007b
:1009c0009ab39b00939c6e009d479e001b9fec007a
:1009d0009fbaa00083a14900a20ba300c8a3820074
:1009e000a437a500e8a59500a63ea700e2a78200cf
:1009f000a81da900b4a94500aad3aa005babdf00db
:100a0000ab5eac00d8ac4d00adbead0029ae8f00e2
:100a1000aef0ae004cafa300aff5af0042b089001e
:100a2000b0ccb00009b14000b173b100a0b1c800b2
:100a3000b1ebb10008b22000b233b20040b24800be
:100a4000b24bb20048b24000b233b20021b209004a
:100a5000b2ecb100cab1a200b176b10044b10d0050
:100a6000b1d1b00090b04900b0feaf00aeaf5800b9
:100a7000affeae009fae3b00aed2ad0065adf30061
:100a8000ac7cac0000ac8000abfcaa0073aae60012
:100a9000a954a900bea82400a885a700e3a63d008c
:100aa000a692a500e4a43200a47ca300c3a2060081
:100ab000a245a10082a0ba009ff09e00229e520093
:100ac0009d7e9c00a79bce009af19900129931005f
:100ad000984d970067967e0095939400a693b70073
:100ae00092c69100d490df008fe98e00f28df9005c
:100af0008cfe8b00038b06008a0889000a880a0096
:100b0000870a86000a8508008407830005820200a0
:100b100081008000fe7efb007df97c00f87bf60002
:100b20007af67900f678f60077f87600fa75fd0027
:100b30007402740007730e007217710021702c008c
:100b40006f3a6e00496d5a006c6d6b00826a9900b5
:100b500069b36800cf67ee00660f66003265590022
:100b600064826300ae62de006110610046607e0058
:100b70005fbb5e00fa5d3d005d845c00ce5b1c00e7
:100b80005b6e5a00c3591d00597b5800dc57420068
:100b900057ac56001a568d0055045500805400007d
:100ba000548453000d539b00522e5200c5516100d6
:100bb00051025100a850520050025000b74f70002f
:100bc0004f2f4f00f34ebc004e8a4e005e4e360053
:100bd0004e144e00f74ddf004dcd4d00c04db80016
:100be0004db54d00b84dc0004dcd4d00e04df80065
:100bf0004d154e00384e60004e8d4e00c04ef70031
:100c00004e344f00774fbe004f0b50005d50b40084
:100c1000501051007151d70051425200b352280078
:100c200053a253002154a500542d5500bb554c0030
:100c300056e356007e571e0058c258006b591800e4
:100c40005ac95a007e5b38005cf55c00b75d7d00d8
:100c50005e465f001460e50060b9610092626d005d
:100c6000634d64002f65150066fe6600ea67d900d3
:100c700068cb6900c06ab7006bb16c00ae6dad00a7
:100c80006eae6f00b270b80071bf7200c973d5004c
:100c900074e27500f176020078147900277a3c003e
:100ca0007b527c00687d80007e987f00b180cb0005
:100cb00081e5820000841a008535860050876b002c
:100cc00088858900a08aba008bd38c00ec8d030044
:100cd0008f1a900031914600925993006c947d00d8
:100ce000958c96009a97a60098b09900b89abf0084
:100cf0009bc39c00c49dc3009ec09f00baa0b100ce
:100d0000a1a6a20097a38600a471a50059a63e0043
:100d1000a71fa800fda8d700a9aeaa0080ab4f006e
:100d2000ac19ad00e0ada200ae60af0019b0ce00ce
:100d3000b07fb1002bb2d200b274b30012b4aa00db
:100d4000b43eb500ccb55500b6d9b60058b7d10001
:100d5000b745b800b3b81c00b97fb900dcb934009e
:100d6000ba85ba00d1ba1700bb57bb0091bbc5000a
:100d7000bbf2bb001abc3b00bc57bc006bbc7a008a
:100d8000bc82bc0084bc8000bc75bc0063bc4c0051
:100d9000bc2dbc0009bcdd00bbabbb0073bb340089
:100da000bbefba00a3ba5100baf8b90098b9320043
:100db000b9c5b80052b8d900b759b700d2b6450086
:100dc000b6b2b50018b57800b4d1b30024b3710041
:100dd000b2b8b100f8b03200b066af0094aebc005b
:100de000addeac00faab1100ab21aa002ca930009b
:100df000a830a70029a61d00a50ca400f5a2d900c3
:100e0000a1b8a000919f66009e359d00009cc50082
:100e10009a8699004298fa0096ad95005c94060077
:100e200093ac91004e90ec008e868d001c8caf0030
:100e30008a3e8900c987510086d584005783d50032
:100e400081518000c97e3f007db27b00237a9100f2
:100e500078fd76006775cf00733572009970fb00de
:100e60006e5c6d00bb6b1a006a776800d3662e005b
:100e700065886300e2613b0060945e00ed5c4500c4
:100e80005b9e5900f6574f0056a8540002535d0070
:100e900051b84f00144e72004cd04a0030499100b6
:100ea00047f445005944c00042284100933f0000e8
:100eb0003e6f3c00e13a550039cd37004736c4005b
:100ec00034453300c8314f0030da2e00682dfa0067
:100ed0002b902a002a29c900276b26001225bd0065
:100ee000236d22002221db001f9a1e005e1d2600ba
:100ef0001cf41a00c819a100187f170063164e00d1
:100f0000153d140033133000123211003a1049001d
:100f10000f5f0e007a0d9d000cc60b00f60a2d0027
:100f20000a6b0900b008fc00074f0700aa060b0077
:100f300006740500e5045d0004dd03006403f300ae
:100f4000028902002802ce00017c01003201ef007c
:100f500000b5000083005900003700001d000b00a1
:100f60000001000000000700001600002d004c00ea
:100f700000740000a400dc00001c01006501b60044
:100f8000010f02007002da00024b0300c5034800a3
:100f900004d204006405ff0005a106004c07ff0011
:100fa00007b908007c0946000a190b00f30bd500ad
:100fb0000cbe0d00b00ea9000fa91000b111c000a9
:100fc00012d71300f5141a00164717007a18b50047
:100fd00019f61a003e1c8d001de31e004020a200e1
:100fe000210c23007b24f100256d2700ef287700da
:100ff0002a052c00992d32002fd1300075321f00a8
:1010000034cd350081373a0039f83a00ba3c8100d6
:101010003e4d40001d42f10043c94500a6478600f1
:10102000496a4b00524d3d004f2b51001d53120099
:10103000550a5700045902005b025d00045f090075
:10104000610f630018652300672f69003d6b4d0039
:101050006d5d6f006f71820073967500aa77bf0097
:1010600079d47b00ea7d8300008b000093009c0014
:1010700000a50000af00b90000c40000d000dc00f3
:1010800000e90000f7000600011501002601370005
:10109000014a01005d017200018801009f01b80052
:1010a00001d20100ee010b00022a02004b026e0089
:1010b00002930200ba02e400021003003f03700032
:1010c00003a40300dc031700045504009704dd00ab
:1010d000042705007505c800052006007d06e00010
:1010e00006490700b8072d0008a908002d09b90016
:1010f000094d0a00ea0a90000b400c00fa0cc000ef
:101100000d910e006f0f5a00105311005b12720008
:10111000139a1400d415200017801800f5198000c8
:101120001b231d00de1eb40020a62200b524e4000f
:1011300026342900a72b40002e003100ea3300009e
:1011400037453a00bc3d6800414c45006b49c8003a
:101150004d6852004f5780005c006200d467000069
:101160006e8a7400797bd00082978a00d5929000b5
:101170009bd0a4009daeff00b8ffc300a7cf000026
:10118000dc15e900f1f6ff00ffffff00ffffff00a5
:10119000ffffff00ffffff00ffffff00ffffff005b
:1011a000ffffff00ffffff00ffffff00ffffff004b
:1011b000ffffff00ffffff00ffffff000010000028
:1011c0001a000000800000001a1000000200000059
:0c11d00082000000e006000000000000ab
:020000040000fa
:1011dc000000fa00bf000700f20007000b01070037
:1011ec00450107006c010700344ea900542ea900dc
:1011fc00544ea900e0808000008088000100370078
:10120c000000000002d0bf00e14f5000fcff3a008c
:10121c00b01684006101b800d08080008000eb0023
:10122c00809ab900828bb9008602780005024200d0
:10123c000010b8000102420084007800a0808800f1
:10124c00b1808800a0808000b18080004008de0062
:10125c00000078005080880050808000c200dd00c3
:10126c0040808000008040004080880040808000ea
:10127c004600de0020808800208080008000e8008e
:10128c00f03f2000008060003080880020808000cb
:10129c0080004000c0012100008040001000780058
:1012ac00808088003080800080004000c0012100d8
:1012bc000080400010007800908088004180800001
:1012cc00f003200000806000608088006080800057
:1012dc000104200000805000708088008080800015
:1012ec006101b800708080008000eb00809ab9002a
:1012fc00828bb90086027800050242000010b8000b
:10130c000102420084007800a0808800b18088002f
:10131c00908080006101b800608080008000eb004c
:10132c00809ab900828bb9008602780005024200cf
:10133c000010b8000102420084007800a2808000f6
:10134c00b38080000000410081804900a0808800ab
:10135c00b1808800a0808000b18080004a09dd0047
:10136c004600de0000007100c608de0000007800b8
:10137c00008088000270ef00a2ff3700801f780009
:10138c000000fa0000808000a0708800544ea80075
:10139c00544ea90010c0b30002f0b7000068a900b9
:1013ac000080fa004f00780000400600809fbe00cd
:1013bc00821f78000000fa00a07280000000d100ab
:1013cc006140600000c0ea00614060000080fb00ea
:1013dc006100600000004000a2728000d1ff2f006d
:1013ec008100610001007000a072880000e8a90073
:1013fc000080fa004f0178004f00be00004006004c
:10140c00809fbe00821f78000200fa000040eb00b3
:10141c00004f780030118000004f780018d0bf00ca
:10142c000004e00008003a009e80fb00000f200042
:10143c008080600000092000808f500002003a007c
:10144c0010c0b30019f0b70018d0bf00e14f500026
:10145c0008003a001e80fb0080004000c081210083
:10146c000080400010007800d080880020c0b300bd
:10147c0019f0b70018d0bf00e24f50000e003a0030
:10148c001970ef00a07180004200de006140600026
:10149c0000c0ea00614060000080fb006100600059
:1014ac004200dd00a2718000b1ff2f0081006100bd
:1014bc0001007000a071880019d0bf0018f0b700af
:1014cc000168a9000080fa004f0178004f00be00af
:1014dc00004006000000fa004567a900203a800091
:1014ec000080a1000090a10000a0a100203a88007b
:1014fc00213a800000fe2f0000806000203a880016
:10150c00313a800000e02f008080600060032000f2
:10151c0001007000303a8800203a80000060a10081
:10152c000070a100203a88003200200080072000c3
:10153c00a10920003374200080497800814978008b
:10154c0082497800103a8000000178000200a00067
:10155c00600420007105200023742000804978006d
:10156c00814978008249780000000000113a80001f
:10157c00000027008080600000002300808f500056
:10158c00faff3a0000000000113a8000000220002f
:10159c00008060000000e000fbff32000080fa00d9
:1015ac00000006000000fa00142eef00242eef00bd
:1015bc00342eef00442eef00542eef00642eef007b
:1015cc00102eef0000002f00007188008084200096
:1015dc0080718800f00f20000072880080002000cd
:1015ec008072880000282000007388001e2eef00f7
:1015fc002e2eef003e2eef00e00f200070728800c0
:10160c006e2eef000080fa00000006000000fa00c9
:10161c0005e1a90005a1a90004c1a90020088000ca
:10162c000040a1000050a100200888000421a9005e
:10163c000021ef00305b2000100888000068a90032
:10164c0005e1a80011e1a90011a1a90010c1a90090
:10165c00800880000040a0000050a0008008880096
:10166c001061a9000421a9000621ef000080eb0005
:10167c006008880000e8a90011e1a800213680006c
:10168c0000f82f0080806000b00420000100700082
:10169c0020368800b0082000401188002002a900e4
:1016ac00001180000010a1000020a1000011880092
:1016bc002062a9002082a90020a2a90020c2a900b2
:1016cc002182a900001180000080a1000090a100df
:1016dc000011880020e2a80021a2a90010118000ae
:1016ec000060a1000070a1001011880021e2a80088
:1016fc000080fa00000006000000fa00c3e8a90010
:10170c00c1e8a9000068a9000042800000c0a10047
:10171c0000d0a10000e0a000004288002068a800d2
:10172c0000e8a9001042800000c0a00000d0a0007a
:10173c0000e0a1001042880020e8a8000168a90080
:10174c002042800000c0a00000d0a00000e0a1005a
:10175c00204288002168a8000188a900304280003e
:10176c000000a1000010a1000020a1003042880060
:10177c002188a9000148a900304280000000a00087
:10178c000010a0000020a100304288002148a900d0
:10179c000080fa00000006000000fa00c3e8a80070
:1017ac000080fa00000006000400fa00004f7800e8
:1017bc00110798000148a9001e80fb004012880008
:1017cc000100370000000000004080004a00de00ed
:1017dc00614060000080fb00e10f4000f9ff3a001f
:1017ec0040128000804078001e0090000148780074
:0817fc000080fa000000060065
:020000040000fa
:0200000401f009
:04000800cfffff0027
:020000040000fa
:0200000401f009
:04000c0078ffff007a
:020000040000fa
:0200000401f009
:040010007effff0070
:020000040000fa
:0200000401f009
:040014007fffff006b
:020000040000fa
:0200000401f009
:04001800ffffff00e7
:020000040000fa
:0200000401f009
:04001c00deffff0004
:020000040000fa
:0200000401f009
:04002000cfffff000f
:00000001FF
