:020000040000fa
:080000000002040000000000f2
:020000040000fa
:10000800d2020000d2020000d2020000d202000098
:10001800d2020000d2020000d2020000d202000088
:10002800d2020000d2020000d2020000fe0300004b
:10003800d2020000d2020000d202000042040000f6
:10004800d2020000d2020000d2020000d202000058
:10005800d2020000d2020000d2020000d202000048
:10006800d2020000d2020000d2020000d202000038
:10007800d2020000d2020000d2020000d202000028
:020000040000fa
:100400004f0021000eff24000e01880000000000b4
:10041000000020000000e000020032000001200087
:10042000200288000c000700005820000100200076
:100430000f000700000020000000e0000200320072
:100440000000020000000000e803020000000000bd
:100450000040da000000fe00200020000000e00064
:100460000200320010002000900188000000060009
:10047000a1028800800078000000eb001a0037001d
:10048000e280400054a0b4009101ba00e280400034
:1004900054a0b4009102ba00e280400054a0b4001d
:1004a0000002eb00472bde00f507b200a601880032
:1004b000602ce10008003a000049eb000201e8006e
:1004c000020039003420ec0002f0a0008301e900b2
:1004d000f9ff3e00040037006128e100010032000e
:1004e0000082eb00040007001101ba000200e000e6
:1004f000e3ff3a000000060004d0a300e20f490029
:100500001c003900810278003549ba000201e80078
:10051000020039003420ec0002f0a0008301e90061
:100520000f0032002549ba000201e800020039003c
:100530003420ec0002f0a0008301e9000800320042
:100540000400e0000600320015c9ba000201e8000c
:10055000020039003420ec0002f0a0008301e90021
:100560008180e80054a0b4000300e000e2ff3a00fc
:10057000000006009102ba00055978008301e900e5
:10058000f7ff3200c82ade00055978008301e90030
:10059000f3ff32000400e000f1ff320011d9ba008d
:0c05a000eeff37000040da000000fe0013
:020000040000fa
:1005ac000000fa004567a900203a80000080a100f5
:1005bc000090a10000a0a100203a8800213a800000
:1005cc0000fe2f0000806000203a8800313a800045
:1005dc0000e02f008080600090042000010070007b
:1005ec00303a8800203a80000060a1000070a10021
:1005fc00203a88001200200080072000a10920006a
:10060c003374200080497800814978008249780051
:10061c00103a8000000178000200a0006004200065
:10062c0071052000237420008049780081497800ee
:10063c008249780000000000113a80000000270079
:10064c008080600000002100808f5000faff3a008b
:10065c0000000000113a80000002200000806000c1
:10066c000000e000fbff32000080fa0000000600f2
:10067c000000fa00042eef00182eef002c2eef00d5
:10068c00402eef00542eef00682eef007c2eef0072
:10069c003000200000708800142eef00282eef0090
:1006ac003c2eef00502eef0010002000207388002d
:1006bc00782eef003000200070708800222eef00a2
:1006cc00362eef005e2eef00862eef000080fa0033
:1006dc00000006000000fa0005e1a90005a1a90030
:1006ec0004c1a900200880000040a0000050a00018
:1006fc00200888000421a9000021ef000080eb00f5
:10070c00100888000068a90005e1a80011e1a90003
:10071c0011a1a90010c1a900800880000040a1000f
:10072c000050a000800888001061a9000421a900d5
:10073c000621ef000080eb006008880000e8a900ab
:10074c0011e1a8000080fa00000006000000fa0089
:10075c00c3e8a900c1e8a9000068a9000042800014
:10076c0000c0a10000d0a10000e0a0000042880061
:10077c002068a80000e8a9001042800000c0a0007a
:10078c0000d0a00000e0a1001042880020e8a800e2
:10079c000148a900304280000000a0000010a00019
:1007ac000020a100304288002148a9000080fa00f6
:1007bc00000006000000fa00c3e8a8000080fa0060
:1007cc00000006000000fa0075ff0700a8ff0700f4
:1007dc00c0ff0700ddff0700f6ff07005b00070006
:1007ec002daea80018eea9002d4ea900ffff370072
:1007fc00809fbe00821f78000000fa000068a900ec
:10080c00607180004d00de006140600000c0ea00b5
:10081c00614060000080fb00610060004d00dd0065
:10082c0062718000f1ff2d008100610001007000f9
:10083c0060718800c07080004700de00614060007d
:10084c0000c0ea00614060000080fb0061006000b5
:10085c004700dd00c2708000f1f72f0081006100bd
:10086c0001007000c07088000080fa004f01780011
:10087c004f00be00004006003600f800809fbe000e
:10088c00829fbe00849fbe00869fbe000000fa00bf
:10089c0000e8a90000808000e60f500004003e0034
:1008ac00008080000000e800008088000100370014
:1008bc000030ef00c1708000f03f2e00808060009f
:1008cc00008080004a00dd0001007000c0708800cc
:1008dc0011808000f0ff2000808f500002003a0051
:1008ec000230ef0003003700108080000000e800a9
:1008fc001080880000102000230007006071800029
:10090c004a00de006140600000c0ea006140600007
:10091c000080fb00610060004a00dd006271800015
:10092c00f1bf2f0081006100010070006071880030
:10093c000080fa004f03be004f02be004f01be0004
:10094c004f00be003600f900004006000000fa001f
:10095c0055eea9000000000000000000000000009f
:10096c0055eea80000000000000000000000000090
:10097c0055aea800558ea80055cea800050ea800af
:10098c000080fa00000006000600fa00200798001c
:10099c000040eb00004f78000000eb0010079800bf
:1009ac0055aea800558ea80055cea800050ea8007f
:1009bc002e009000004f78006171800011079800a4
:1009cc009e00900000f02f0000806000100798003f
:1009dc001e80fb009e009000010070001007980024
:1009ec009e00900061718800558ea90055cea9001b
:1009fc0000000000000000000000000055cea80020
:100a0c00558ea8000000000000000000000000004f
:100a1c00ae00900000f02000008060004800de0076
:100a2c00004f780061718000110798009e009000c3
:100a3c0000f02f0000806000100798001e80fb0063
:100a4c009e00900001007000100798009e0090001e
:100a5c0061718800558ea90055cea90000000000d8
:100a6c00000000000000000055cea800558ea80024
:100a7c00000000000000000000000000050ea900ae
:100a8c00000000000000000000000000050ea8009f
:100a9c000000000000000000000000000080fa00d0
:100aac00000006000400fa00004f780011079800bf
:100abc000148a9001e80fb0040128800010037008d
:100acc0000000000004080004a00de006140600031
:100adc000080fb00e10f4000f9ff3a00401280005b
:100aec00804078001e009000014878000080fa00d9
:040afc0000000600f0
:020000040000fa
:100b00000010000004000000800000000000000051
:020000040000fa
:020000040005f5
:04570000ffff0000a7
:020000040000fa
:020000040005f5
:04572000ffff000087
:020000040000fa
:020000040005f5
:0457300078ff0000fe
:020000040000fa
:020000040005f5
:045738007fff0000ef
:020000040000fa
:020000040005f5
:045740009fff0000c7
:020000040000fa
:020000040005f5
:04574800ffff00005f
:020000040000fa
:020000040005f5
:04575000fdff000059
:020000040000fa
:020000040005f5
:04575800ffff00004f
:020000040000fa
:020000040005f5
:04576000ffff000047
:020000040000fa
:020000040005f5
:04576800ffff00003f
:020000040000fa
:020000040005f5
:04577000ffff000037
:020000040000fa
:020000040005f5
:04577800feff000030
:020000040000fa
:020000040005f5
:04578000ffff000027
:020000040000fa
:020000040005f5
:04578800ffff00001f
:00000001FF
